:10000000F6C0000024C1000022C1000020C1000091
:100010001EC100001CC100001AC1000018C1000070
:1000200016C1000014C1000012C1000010C1000080
:100030000EC100000CC100000AC1000008C1000090
:1000400006C1000025C7000002C1000000C1000079
:10005000FEC00000FCC00000FAC0000048C600005E
:10006000F6C000000EC60000E3C50000F0C00000AE
:10007000EEC00000ECC00000EAC00000E8C00000D4
:10008000DAC60000E4C00000E2C00000E0C00000EA
:1000900099C500006EC50000DAC00000D8C000009D
:1000A000D6C00000D4C0000099C60000D0C0000037
:1000B000CEC00000CCC00000CAC0000062C6000074
:1000C000C6C00000C4C00000C2C00000C0C0000024
:1000D000BEC00000BCC00000BAC00000B8C0000034
:1000E000B6C0000000002100240027002A002D00D7
:1000F0003000330001010000040107010A01000083
:100100002200250028002B002E00310034000201BF
:100110000000050108010B01050505050705080894
:100120000808020202020A0A080804040404010181
:100130000101010101010303030303030303040796
:1001400007070C0C0C0C0C0C0C0C0202020206062D
:100150000606060606060B0B0B0B0B0B0B0B010220
:1001600010202008081020401020408002010201C9
:100170000804020101020408102040808040201081
:1001800008040201800402018040201008040201DA
:100190000804020101020408102040800102040842
:1001A0001020408000000A0B02090C0D0E08070306
:1001B000040100000000000000000000000000003A
:1001C000000000000000000000000000000000002F
:1001D00012111000000000000000000000000000EC
:1001E000000000000000000000008107010B112446
:1001F0001FBECFEFD1E2DEBFCDBF00E00CBF12E0EB
:10020000A0E0B2E0EAEDFBE100E00BBF02C0079026
:100210000D92A035B107D9F724E0A0E5B2E001C006
:100220001D92AB34B207E1F710E0C6EFD0E000E07A
:1002300006C021970109802FFE010E94A60BC53F31
:10024000D10780E00807A9F732D70C94DC0DD8CE8F
:10025000FC01A089B18982E08C93A485B5851C92AC
:10026000A685B7858FEC8C93108EA489B58986E01E
:100270008C93A289B3898C9180618C93A289B38974
:100280008C9188608C93A289B3898C9180688C93BF
:100290000288F389E02D80818F7D80830895AF925D
:1002A000BF92CF92DF92EF92FF920F931F93CF9363
:1002B000DF936C017B018B01040F151FEB015E01C5
:1002C000AE18BF08C017D10759F06991D601ED915A
:1002D000FC910190F081E02DC6011995892B79F7E9
:1002E000C501DF91CF911F910F91FF90EF90DF90AB
:1002F000CF90BF90AF900895FC01538D448D252F72
:1003000030E0842F90E0821B930B541710F0CF96AF
:10031000089501970895FC01918D828D981761F0E1
:10032000A28DAE0FBF2FB11D5D968C91928D9F5FF8
:100330009F73928F90E008958FEF9FEF0895FC01D7
:10034000918D828D981731F0828DE80FF11D858D8A
:1003500090E008958FEF9FEF0895FC01918D228D1D
:10036000892F90E0805C9F4F821B91098F739927A2
:10037000089581E692E0F1DF21E0892B09F420E085
:10038000822F08958EEF92E0E8DF21E0892B09F4B7
:1003900020E0822F0895FC01A48DA80FB92FB11D74
:1003A000A35ABF4F2C91848D90E001968F739927AB
:1003B000848FA689B7892C93A089B1898C91837089
:1003C00080648C93938D848D981306C00288F38982
:1003D000E02D80818F7D80830895EF92FF920F93AF
:1003E0001F93CF93DF93EC0181E0888F9B8D8C8DE1
:1003F00098131AC0E889F989808185FF15C09FB7D5
:10040000F894EE89FF896083E889F9898081837097
:10041000806480839FBF81E090E0DF91CF911F9146
:100420000F91FF90EF900895F62E0B8D10E00F5F67
:100430001F4F0F731127E02E8C8D8E110BC00FB63E
:1004400007FCFACFE889F989808185FFF5CFCE01D5
:10045000A2DFF2CFEB8DEC0FFD2FF11DE35AFF4F22
:10046000F0829FB7F8940B8FEA89FB8980818062C4
:10047000D0CFCF93DF93EC01888D8823B1F0AA8988
:10048000BB89E889F9898C9185FD03C0808186FD4F
:100490000CC00FB607FCF7CF8C9185FFF2CF80819F
:1004A00085FFEDCFCE0177DFEACFDF91CF910895C1
:1004B00080E090E0892B21F065DF81110E9400002F
:1004C00080E090E0892B21F054DF81110E94000030
:1004D00080E090E0892B49F080E090E0892B29F0C2
:1004E0000E94000081110E94000080E090E0892BB2
:1004F00049F080E090E0892B29F00E9400008111F2
:100500000C9400000895282F30E0F901EC55FE4FBF
:100510009491F901E25AFE4F4491285E3E4FF90151
:100520002491222309F435C0992311F1915092317D
:10053000F8F4E92FF0E08827EF55FD4F8F4F0C942A
:10054000A60BD202D602B302CA02CE02B802D90268
:10055000DF02E302E902ED02F102F702FB02B80258
:10056000FF0205030903809180008F77809380004C
:10057000E22FF0E0EE0FFF1FE250FF4FA591B49184
:100580008FB7F894EC91611148C040954E234C937D
:100590008FBF0895809180008F7DE8CF809180008B
:1005A000877FE4CF84B58F7784BDE2CF84B58F7D1C
:1005B000FBCF8091B0008F778093B000D9CF80912E
:1005C000B0008F7DF9CF809190008F77809390005D
:1005D000CFCF809190008F7DF9CF80919000877F61
:1005E000F5CF8091A0008F778093A000C1CF80913C
:1005F000A0008F7DF9CF8091A000877FF5CF8091FB
:1006000020018F7780932001B3CF809120018F7DCF
:10061000F9CF80912001877FF5CF4E2BB8CFCF93B4
:10062000DF9390E0FC01E25AFE4F2491885E9E4FDA
:10063000FC0184918823D1F090E0880F991FFC0180
:10064000EC51FF4FA591B491FC01E250FF4FC591D1
:10065000D49161110EC09FB7F8948C91E22FE09570
:100660008E238C932881E223E8839FBFDF91CF9173
:1006700008958FB7F894EC91E22BEC938FBFF6CFEF
:100680001F93CF93DF93182FEB0161E0C8DF209712
:1006900031F460E0812FDF91CF911F9134CFCF3FB4
:1006A000D10511F461E0F6CFE12FF0E0EC55FE4FFB
:1006B000E491E150E23108F0B3C0F0E08827EC5952
:1006C000FC4F8F4F0C94A60B76037E0383038D03A0
:1006D00097031004A103A903B103BB03C503CF0310
:1006E000DE03E8031004F203FC03060484B580680B
:1006F00084BDC7BDDF91CF911F91089584B58062FD
:1007000084BDC8BDF7CF8091800080688093800051
:10071000D0938900C0938800EDCF809180008062E3
:1007200080938000D0938B00C0938A00E3CF8091A8
:100730008000886080938000D0938D00C0938C00EF
:10074000D9CF8091B00080688093B000C093B3008F
:10075000D1CF8091B00080628093B000C093B4008C
:10076000C9CF80919000806880939000D0939900C9
:10077000C0939800BFCF80919000806280939000DA
:10078000D0939B00C0939A00B5CF80919000886071
:1007900080939000D0939D00C0939C00ABCF80913C
:1007A000A00080688093A0008091A0008F7B809340
:1007B000A000D093A900C093A8009CCF8091A00076
:1007C00080628093A000D093AB00C093AA0092CF28
:1007D0008091A00088608093A000D093AD00C0936A
:1007E000AC0088CF80912001806880932001D09355
:1007F0002901C09328017ECF8091200180628093DF
:100800002001D0932B01C0932A0174CF8091200145
:10081000886080932001D0932D01C0932C016ACF72
:10082000C038D1050CF03ECF34CF3FB7F89480915B
:10083000590290915A02A0915B02B0915C0226B5D8
:10084000A89B05C02F3F19F00196A11DB11D3FBF08
:10085000BA2FA92F982F8827BC01CD01620F711DD7
:10086000811D911D42E0660F771F881F991F4A95D1
:10087000D1F70895AF92BF92CF92DF92EF92FF929D
:100880000F931F93CF93DF936B017A01EC01C05B51
:10089000DD4F28813CE0389F8001399F100D1124E5
:1008A000A0902B04B12C27FF1FC0FB0111821082E6
:1008B00088818F5F888388819801280F311D87FD8B
:1008C0003A95F6012A153B051CF488818C30BCF161
:1008D00080819181049680349C4908F471C0F601AE
:1008E0008081918104966EC088819801280F311D06
:1008F00087FD3A952A153B05DCF68881A801480F4B
:10090000511D87FD5A95FA01EE0FFF1FE40FF51FE9
:10091000E556FC4F808186FFCBCF8881F801E80F38
:10092000F11D87FDFA95CF01EE0FFF1FE80FF91FAC
:10093000E556FC4F808160E08F73E5DDB9CF8081A3
:1009400091812881A801420F511D27FD5A959A01D6
:10095000FA01EE0FFF1FE20FF31FE556FC4F218156
:100960003281820F931FF7019183808388819801E0
:10097000280F311D87FD3A95F901EE0FFF1FE20F99
:10098000F31FE556FC4F808186FF21C08881080F48
:10099000111D87FD1A95F801EE0FFF1FE00FF11FE3
:1009A000E556FC4F808161E08F73DF91CF911F91FD
:1009B0000F91FF90EF90DF90CF90BF90AF90A3CDBD
:1009C00080E49CE9F701918380838FEF8883DF9136
:1009D000CF911F910F91FF90EF90DF90CF90BF903C
:1009E000AF9008950895FC01148270E060E0868164
:1009F00047CECF93DF93EC011C8260E08A8183DDD8
:100A000060E08B81DF91CF917ECDDC01ED91FC9197
:100A10000280F381E02D19941F93CF93DF93EC01B3
:100A2000162F6C838A8167FF14C061E06CDD60E083
:100A30008B8169DD2D811203C001112464E670E011
:100A400072D67195619571098E81DF91CF911F9159
:100A500017CE60E058DD61E08B8155DD2D811203FA
:100A6000C001112464E670E05ED6EECFDC01ED91AA
:100A7000FC910480F581E02D1994CF93DF93EC0174
:100A80008A819B81DC01ED91FC910190F081E02D48
:100A900019958C819D81DC01ED91FC910190F08193
:100AA000E02DDF91CF911994CF93DF93EC0161E0BA
:100AB0008A81B5DD61E08B81B2DDE881F981068054
:100AC000F781E02DCE01DF91CF911994F7C6FC019B
:100AD00024813581232B39F421E0FB018081882397
:100AE00049F020E007C0808191810E94CC0D21E077
:100AF000892BB9F7822F0895EF92FF920F931F93DE
:100B0000CF93DF93EC017B018A0188819981009763
:100B100029F02A813B812417350780F4B8016F5FE3
:100B20007F4F55D7009791F0998388831B830A8361
:100B30002C813D81232B11F4FC0110821D830C8339
:100B4000B701888199810E94D50D0BC08881998158
:100B5000009709F0B3D6198218821D821C821B826D
:100B60001A82CE01DF91CF911F910F91FF90EF90EC
:100B700008951F920F920FB60F9211240BB60F9289
:100B80002F933F934F935F936F937F938F939F9395
:100B9000AF93BF93EF93FF9381E692E0FCDBFF916D
:100BA000EF91BF91AF919F918F917F916F915F91E5
:100BB0004F913F912F910F900BBE0F900FBE0F9052
:100BC0001F9018951F920F920FB60F9211240BB61B
:100BD0000F922F938F939F93EF93FF93E091710266
:100BE000F09172028081E0917702F091780282FDAB
:100BF0001DC0908180917A028F5F8F7320917B025C
:100C0000821741F0E0917A02F0E0EF59FD4F958FA5
:100C100080937A02FF91EF919F918F912F910F9086
:100C20000BBE0F900FBE0F901F9018958081F2CFD2
:100C30001F920F920FB60F9211240BB60F922F93A3
:100C40003F934F935F936F937F938F939F93AF9354
:100C5000BF93EF93FF938EEF92E09DDBFF91EF91B7
:100C6000BF91AF919F918F917F916F915F914F91C4
:100C70003F912F910F900BBE0F900FBE0F901F90C2
:100C800018951F920F920FB60F9211240BB60F9268
:100C90002F938F939F93EF93FF93E0910E03F09127
:100CA0000F038081E0911403F091150382FD1DC0B4
:100CB0009081809117038F5F8F73209118038217A3
:100CC00041F0E0911703F0E0E250FD4F958F8093E3
:100CD0001703FF91EF919F918F912F910F900BBE72
:100CE0000F900FBE0F901F9018958081F2CF1F922A
:100CF0000F920FB60F9211242F933F938F939F93D0
:100D0000AF93BF938091550290915602A0915702E4
:100D1000B09158023091540223E0230F2D3758F53B
:100D20000196A11DB11D209354028093550290930A
:100D30005602A0935702B0935802809159029091A5
:100D40005A02A0915B02B0915C020196A11DB11DF7
:100D50008093590290935A02A0935B02B0935C0275
:100D6000BF91AF919F918F913F912F910F900FBEA7
:100D70000F901F90189526E8230F0296A11DB11D14
:100D8000D2CF1F920F920FB60F9211240BB60F9273
:100D90002F933F934F935F936F937F938F939F9383
:100DA000AF93BF93EF93FF9348E251E064E271E0A9
:100DB00090E080E05FDDFF91EF91BF91AF919F9157
:100DC0008F917F916F915F914F913F912F910F90F4
:100DD0000BBE0F900FBE0F901F9018951F920F9291
:100DE0000FB60F9211240BB60F922F933F934F9390
:100DF0005F936F937F938F939F93AF93BF93EF9383
:100E0000FF9348EA50E064EA70E083E090E032DD6E
:100E1000FF91EF91BF91AF919F918F917F916F91D2
:100E20005F914F913F912F910F900BBE0F900FBE8E
:100E30000F901F9018951F920F920FB60F921124CA
:100E40000BB60F922F933F934F935F936F937F93C4
:100E50008F939F93AF93BF93EF93FF9348E950E035
:100E600064E970E082E090E005DDFF91EF91BF91D1
:100E7000AF919F918F917F916F915F914F913F9132
:100E80002F910F900BBE0F900FBE0F901F901895D3
:100E90001F920F920FB60F9211240BB60F922F9341
:100EA0003F934F935F936F937F938F939F93AF93F2
:100EB000BF93EF93FF9348E850E064E870E081E06F
:100EC00090E0D8DCFF91EF91BF91AF919F918F910E
:100ED0007F916F915F914F913F912F910F900BBE3A
:100EE0000F900FBE0F901F901895FC011182108279
:100EF000138212821582148250E040E06BE372E0AC
:100F0000FBCD1F93CF93DF93109264021092630284
:100F100048EE53E060E070E0409365025093660253
:100F2000609367027093680289E192E09093620295
:100F3000809361022DEC30E030936E0220936D02BD
:100F40002CEC30E03093700220936F0228EC30E0FC
:100F5000309372022093710229EC30E030937402D6
:100F6000209373022AEC30E03093760220937502CE
:100F70002EEC30E0309378022093770210927A02C0
:100F800010927B0210927C0210927D02109201035B
:100F900010920003409302035093030360930403F1
:100FA000709305039093FF028093FE0285EC90E01E
:100FB00090930B0380930A0384EC90E090930D03CD
:100FC00080930C0380EC90E090930F0380930E03CA
:100FD00081EC90E0909311038093100382EC90E0F9
:100FE000909313038093120386EC90E09093150383
:100FF0008093140310921703109218031092190390
:1010000010921A0380912B04803308F04CC091E0B9
:10101000980F90932B048093440490E0FC01EE0F12
:10102000FF1FE80FF91FE556FC4F88EB9BE092830A
:1010300081838EE394E059DF88E394E056DF82E316
:1010400094E053DF8DE092E090932D0480932C0484
:1010500087E090E097D3FC0114821FEF158386E2AE
:10106000828385E28383CBE2D2E0D183C08386E0B2
:101070008683F0932F04E0932E0487E090E082D3E0
:10108000FC011482158384E2828389E28383D18305
:10109000C08385E08683F0933104E0933004DF91D0
:1010A000CF911F9108958FEF80934404C2CF78941D
:1010B00084B5826084BD84B5816084BD85B582605D
:1010C00085BD85B5816085BD80916E00816080930E
:1010D0006E00109281008091810082608093810077
:1010E0008091810081608093810080918000816087
:1010F000809380008091B10084608093B1008091E2
:10110000B00081608093B0008091910082608093F4
:101110009100809191008160809391008091900076
:101120008160809390008091A10082608093A100F3
:101130008091A10081608093A1008091A0008160D6
:101140008093A00080912101826080932101809191
:101150002101816080932101809120018160809331
:10116000200180917A00846080937A0080917A00D7
:10117000826080937A0080917A00816080937A0007
:1011800080917A00806880937A001092C1008CE28E
:1011900094E073DC80914404803308F050C061E037
:1011A00088E03DDA80914404282F30E0F901EE0F09
:1011B000FF1FE20FF31FE556FC4F9081907C986073
:1011C000908310924504109246042CE0622F9FD227
:1011D000829FB001112430E020E0AB01420F531F89
:1011E000FA01EE0FFF1FE40FF51FE556FC4F90814B
:1011F00096FD17C02F5F3F4F2C30310571F78130BE
:1012000009F0F2C01092800082E080938100109279
:10121000850010928400B19A80916F008260809363
:101220006F00E09144048E2F90E0FC01EE0FFF1F51
:10123000E80FF91FE556FC4F808180648083F090B1
:1012400044048091460408E512E0081B110987FD5B
:101250001395000F111F000F111F80914504C8E85E
:10126000D0E0C81BD10987FDD395CC0FDD1FCC0F73
:10127000DD1F4E010D2E000CAA08BB089801012E9F
:10128000000C440B550B281939094A095B09A6E4DF
:10129000B0E002D224EB30E040E050E0E1D1820E39
:1012A000931EA41EB51E2FE22F15C8F08C169D06A6
:1012B0002CF0E801801691060CF4E4012297CC0F83
:1012C000DD1F2FB7F8948F2D90E0FC01EE0FFF1F6C
:1012D000E80FF91FE556FC4FD283C1832FBF8EEF75
:1012E00092E00E94280181E692E00E94280160E0DD
:1012F0008FE195D961E08EE192D960E080E28FD9EB
:1013000061E083E28CD995E0292E312C26E0822EF3
:10131000912CC4E0D0E003E010E0AA24A394B12C07
:10132000EFE0F2E0A0E0B2E080813296863308F090
:10133000865320917B00982F9870277F922B909353
:101340007B008770806480937C0080917A00806449
:1013500080937A0080917A0086FDFCCF809178009E
:10136000909179008C3B92400CF46AC081E38C939D
:10137000119685E192E08E179F07B1F6E0E0F2E06A
:1013800001900020E9F7AF014150524060E072E067
:1013900082E394E0B1DB40913604509137046091D0
:1013A0003204709133048EEF92E00E944F0142E0CC
:1013B00050E069E372E08EEF92E00E944F01E0910D
:1013C0005F02F0916002E830F10508F0F9C088276B
:1013D000E451F64F8F4FBAC1230AB90ACA0ACC0AA0
:1013E000D40ACC0ACA0AD60A823061F4109290005C
:1013F00080939100109295001092940088BB809386
:1014000071000FCF833069F41092A00082E08093C6
:10141000A1001092A5001092A40089BB80937200D5
:1014200000CF8111FECE1092200182E08093210135
:1014300010922501109224018ABB80937300F1CE93
:1014400090E39C9395CF6CE372E082E394E03FDB02
:101450008823C1F1B0926002A0925F0260913204D1
:10146000709133046115710509F4B7C040913604D9
:101470005091370488E394E03FDBD7D92B013C013E
:1014800084E6C82ED12CE12CF12CCFD96419750932
:1014900086099709683E734081059105B0F391E094
:1014A000C91AD108E108F108E8EE4E0EE3E05E1E2D
:1014B000611C711CC114D104E104F10431F70E94D4
:1014C00058022ECF60E472E082E394E000DB8823D0
:1014D00039F082E090E09093600280935F02BECF8B
:1014E00064E472E082E394E0F2DA882329F0109356
:1014F000600200935F02B2CF68E472E082E394E09E
:10150000E6DA8823F9F060E472E088E394E0DFDA59
:1015100081110CC064E472E088E394E0D8DA8111B0
:101520000AC0D0936002C0935F0298CF30926002ED
:1015300020925F0293CF64E472E088E394E0C7DA1C
:10154000811112C06CE472E082E394E0C0DA882377
:1015500009F484CF6CE472E088E394E0B8DA811196
:101560007DCF87E090E0B7CF9092600280925F02DB
:1015700075CF68E280912E0490912F0477DA68E2AB
:10158000809130049091310471DA109260021092CF
:101590005F0264CF60E0EECF68E280912E0490910C
:1015A0002F0464DA60E0ECCF60E0F7CF80915D0259
:1015B00090915E02019690935E0280935D02E5CF6A
:1015C00068E2809130049091310450DA68E28091B1
:1015D0002E0490912F044ADA41CF809138049091E3
:1015E0003904009709F06AD1109239041092380436
:1015F00010923D0410923C0410923B0410923A0465
:101600003CCF8DE092E090932D0480932C04809148
:101610002E0490912F04009739F0DC01ED91FC919C
:101620000484F585E02D1995809130049091310462
:10163000009739F0DC01ED91FC910484F585E02DF3
:101640001995809132049091330438D180913804F7
:101650009091390433D180913E0490913F042EC182
:10166000052E97FB16F400940FD057FD05D01ED021
:1016700007FC02D046F408C050954095309521955E
:101680003F4F4F4F5F4F08959095809570956195AE
:101690007F4F8F4F9F4F08952BD0A59F900DB49FE4
:1016A000900DA49F800D911D11240895A1E21A2E82
:1016B000AA1BBB1BFD010DC0AA1FBB1FEE1FFF1FF6
:1016C000A217B307E407F50720F0A21BB30BE40B46
:1016D000F50B661F771F881F991F1A9469F760958D
:1016E0007095809590959B01AC01BD01CF01089547
:1016F000A29FB001B39FC001A39F700D811D112453
:10170000911DB29F700D811D1124911D0895991B8B
:1017100079E004C0991F961708F0961B881F7A95E8
:10172000C9F78095089597FB072E16F4009406D00C
:1017300077FD08D013D007FC05D03EF49095819535
:101740009F4F0895709561957F4F0895EE0FFF1F8D
:10175000881F8BBF0790F691E02D1994AA1BBB1B25
:1017600051E107C0AA1FBB1FA617B70710F0A61BA1
:10177000B70B881F991F5A95A9F780959095BC01C2
:10178000CD0108950F931F93CF93DF93823091057E
:1017900010F482E090E0E0914904F0914A0430E0D6
:1017A00020E0B0E0A0E0309799F42115310509F46C
:1017B0004AC0281B390B24303105D8F58A819B811A
:1017C0006115710589F1FB0193838283FE0111C0CC
:1017D000408151810281138148175907E0F0481771
:1017E000590799F4109761F012960C93129713967B
:1017F0001C933296CF01DF91CF911F910F910895E5
:101800000093490410934A04F4CF2115310551F097
:101810004217530738F0A901DB019A01BD01DF012E
:10182000F801C1CFEF01F9CF90934A0480934904A6
:10183000CDCFFE01E20FF31F819391932250310926
:1018400039832883D7CF2091470430914804232B34
:1018500041F4209105023091060230934804209310
:10186000470420910302309104022115310541F40F
:101870002DB73EB74091070250910802241B350B4B
:10188000E0914704F0914804E217F307A0F42E1BFF
:101890003F0B2817390778F0AC014E5F5F4F2417D4
:1018A000350748F04E0F5F1F50934804409347049C
:1018B000819391939FCFF0E0E0E09CCFCF93DF93B3
:1018C0000097E9F0FC01329713821282A09149043B
:1018D000B0914A04ED0130E020E01097A1F420819E
:1018E0003181820F931F20914704309148042817BB
:1018F000390709F061C0F0934804E0934704DF9191
:10190000CF910895EA01CE17DF07E8F54A815B81A0
:101910009E0141155105B1F7E901FB83EA83499125
:101920005991C40FD51FEC17FD0761F48081918197
:101930000296840F951FE9019983888382819381A0
:101940009B838A83F0E0E0E012968D919C9113973F
:101950000097B9F52D913C911197CD010296820F18
:10196000931F20914704309148042817390739F60E
:10197000309751F510924A0410924904B0934804EC
:10198000A0934704BCCFD383C28340815181840F8D
:10199000951FC817D90761F44E5F5F4F8881998101
:1019A000480F591F518340838A819B81938382838F
:1019B0002115310509F0B0CFF0934A04E0934904B2
:1019C0009ECFFD01DC01C0CF13821282D7CF4F9290
:1019D0005F926F927F928F929F92AF92BF92CF92BF
:1019E000DF92EF92FF920F931F93CF93DF938C01BF
:1019F000009791F4CB01DF91CF911F910F91FF9050
:101A0000EF90DF90CF90BF90AF909F908F907F909E
:101A10006F905F904F90B6CEFC01E60FF71F9C01D0
:101A200022503109E217F30708F4AAC0D901CD9179
:101A3000DC911197C617D70718F1C530D10570F0A2
:101A4000CE0104978617970748F0C61BD70B22973D
:101A5000C193D1936D937C93CF0130DFC801DF91A7
:101A6000CF911F910F91FF90EF90DF90CF90BF909B
:101A7000AF909F908F907F906F905F904F90089560
:101A80005B01AC1ABD0A4C018C0E9D1EA09149044D
:101A9000B0914A04512C412CF12CE12C109731F5D6
:101AA00080914704909148048815990509F05CC01D
:101AB0004616570608F058C0809103029091040220
:101AC000009741F48DB79EB74091070250910802EC
:101AD000841B950BE817F90708F052C0F0934804EF
:101AE000E0934704F90171836083B8CF8D919C9195
:101AF000119712966C90129713967C901397A815D5
:101B0000B90559F56C0142E0C40ED11CCA14DB04BE
:101B100020F1AC014A195B09DA011296159780F0A1
:101B20006282738251834083D9016D937C93E11467
:101B3000F10471F0D7011396FC93EE9312978ECFB8
:101B400022968C0F9D1FF90191838083F301EFCFC3
:101B5000F0934A04E093490481CF4816590608F4EB
:101B60002C017D01D3019ACFCB010CDE7C010097C3
:101B700039F0AE01B80107D0C801A0DE87016ECFF1
:101B800010E000E06BCFFB01DC0102C001900D9280
:101B900041505040D8F70895FB01DC018D91019030
:101BA00080190110D9F3990B0895FB01DC01019014
:101BB0000D920020E1F7089510E0C6EFD0E000E0BC
:101BC00005C0802FFE01C2DD2196011DC73FD10750
:0A1BD00080E00807B1F7F894FFCF9A
:101BDA0030303000004B048000000000003D053F1B
:101BEA00004000410000000000ED014F017C013976
:101BFA0002AD018B019F010000000054050C050590
:101C0A0005F904F304F20466050D0A0031303100C7
:101C1A003131300030313100313131003030300073
:00000001FF
