:10000000F6C0000024C1000022C1000020C1000091
:100010001EC100001CC100001AC1000018C1000070
:1000200016C1000014C1000012C1000010C1000080
:100030000EC100000CC100000AC1000008C1000090
:1000400006C10000CAC6000002C1000000C10000D5
:10005000FEC00000FCC00000FAC00000EDC50000BA
:10006000F6C00000B3C5000088C50000F0C0000065
:10007000EEC00000ECC00000EAC00000E8C00000D4
:100080007FC60000E4C00000E2C00000E0C0000045
:100090003EC5000013C50000DAC00000D8C0000053
:1000A000D6C00000D4C000003EC60000D0C0000092
:1000B000CEC00000CCC00000CAC0000007C60000CF
:1000C000C6C00000C4C00000C2C00000C0C0000024
:1000D000BEC00000BCC00000BAC00000B8C0000034
:1000E000B6C0000000002100240027002A002D00D7
:1000F0003000330001010000040107010A01000083
:100100002200250028002B002E00310034000201BF
:100110000000050108010B01050505050705080894
:100120000808020202020A0A080804040404010181
:100130000101010101010303030303030303040796
:1001400007070C0C0C0C0C0C0C0C0202020206062D
:100150000606060606060B0B0B0B0B0B0B0B010220
:1001600010202008081020401020408002010201C9
:100170000804020101020408102040808040201081
:1001800008040201800402018040201008040201DA
:100190000804020101020408102040800102040842
:1001A0001020408000000A0B02090C0D0E08070306
:1001B000040100000000000000000000000000003A
:1001C000000000000000000000000000000000002F
:1001D00012111000000000000000000000000000EC
:1001E000000000000000000000004B079D091124E2
:1001F0001FBECFEFD1E2DEBFCDBF00E00CBF12E0EB
:10020000A0E0B2E0E0E0F9E100E00BBF02C007903F
:100210000D92A233B107D9F724E0A2E3B2E001C006
:100220001D92A932B207E1F710E0C6EFD0E000E07E
:1002300006C021970109802FFE010E94420AC53F96
:10024000D10780E00807A9F7FCD60C946F0CD8CE34
:10025000FC01A089B18982E08C93A485B5851C92AC
:10026000A685B7858FEC8C93108EA489B58986E01E
:100270008C93A289B3898C9180618C93A289B38974
:100280008C9188608C93A289B3898C9180688C93BF
:100290000288F389E02D80818F7D80830895AF925D
:1002A000BF92CF92DF92EF92FF920F931F93CF9363
:1002B000DF936C017B018B01040F151FEB015E01C5
:1002C000AE18BF08C017D10759F06991D601ED915A
:1002D000FC910190F081E02DC6011995892B79F7E9
:1002E000C501DF91CF911F910F91FF90EF90DF90AB
:1002F000CF90BF90AF900895FC01538D448D252F72
:1003000030E0842F90E0821B930B541710F0CF96AF
:10031000089501970895FC01918D828D981761F0E1
:10032000A28DAE0FBF2FB11D5D968C91928D9F5FF8
:100330009F73928F90E008958FEF9FEF0895FC01D7
:10034000918D828D981731F0828DE80FF11D858D8A
:1003500090E008958FEF9FEF0895FC01918D228D1D
:10036000892F90E0805C9F4F821B91098F739927A2
:1003700008958FE392E0F1DF21E0892B09F420E07A
:10038000822F08958CED92E0E8DF21E0892B09F4BB
:1003900020E0822F0895FC01A48DA80FB92FB11D74
:1003A000A35ABF4F2C91848D90E001968F739927AB
:1003B000848FA689B7892C93A089B1898C91837089
:1003C00080648C93938D848D981306C00288F38982
:1003D000E02D80818F7D80830895EF92FF920F93AF
:1003E0001F93CF93DF93EC0181E0888F9B8D8C8DE1
:1003F00098131AC0E889F989808185FF15C09FB7D5
:10040000F894EE89FF896083E889F9898081837097
:10041000806480839FBF81E090E0DF91CF911F9146
:100420000F91FF90EF900895F62E0B8D10E00F5F67
:100430001F4F0F731127E02E8C8D8E110BC00FB63E
:1004400007FCFACFE889F989808185FFF5CFCE01D5
:10045000A2DFF2CFEB8DEC0FFD2FF11DE35AFF4F22
:10046000F0829FB7F8940B8FEA89FB8980818062C4
:10047000D0CFCF93DF93EC01888D8823B1F0AA8988
:10048000BB89E889F9898C9185FD03C0808186FD4F
:100490000CC00FB607FCF7CF8C9185FFF2CF80819F
:1004A00085FFEDCFCE0177DFEACFDF91CF910895C1
:1004B00080E090E0892B21F065DF81110E9400002F
:1004C00080E090E0892B21F054DF81110E94000030
:1004D00080E090E0892B49F080E090E0892B29F0C2
:1004E0000E94000081110E94000080E090E0892BB2
:1004F00049F080E090E0892B29F00E9400008111F2
:100500000C9400000895282F30E0F901EC55FE4FBF
:100510009491F901E25AFE4F4491285E3E4FF90151
:100520002491222309F434C0992309F19150923186
:10053000F0F4E92FF0E08827E056FD4F8F4FA2C777
:10054000D102D502B202C902CD02B702D802DE0240
:10055000E202E802EC02F002F602FA02B702FE0240
:1005600004030803809180008F7780938000E22F3E
:10057000F0E0EE0FFF1FE250FF4FA591B4918FB74F
:10058000F894EC91611148C040954E234C938FBF75
:100590000895809180008F7DE8CF80918000877FD3
:1005A000E4CF84B58F7784BDE2CF84B58F7DFBCF58
:1005B0008091B0008F778093B000D9CF8091B00048
:1005C0008F7DF9CF809190008F7780939000CFCF6F
:1005D000809190008F7DF9CF80919000877FF5CF3B
:1005E0008091A0008F778093A000C1CF8091A00060
:1005F0008F7DF9CF8091A000877FF5CF809120017A
:100600008F7780932001B3CF809120018F7DF9CF28
:1006100080912001877FF5CF4E2BB8CFCF93DF930A
:1006200090E0FC01E25AFE4F2491885E9E4FFC014F
:1006300084918823D1F090E0880F991FFC01EC5140
:10064000FF4FA591B491FC01E250FF4FC591D491A9
:1006500061110EC09FB7F8948C91E22FE0958E2324
:100660008C932881E223E8839FBFDF91CF91089587
:100670008FB7F894EC91E22BEC938FBFF6CF1F93DA
:10068000CF93DF93182FEB0161E0C8DF209731F49F
:1006900060E0812FDF91CF911F9135CFCF3FD10502
:1006A00011F461E0F6CFE12FF0E0EC55FE4FE4915C
:1006B000E150E23108F0B2C0F0E08827EE59FC4F7B
:1006C0008F4FE0C674037C0381038B0395030E04F4
:1006D0009F03A703AF03B903C303CD03DC03E60302
:1006E0000E04F003FA03040484B5806884BDC7BD1A
:1006F000DF91CF911F91089584B5806284BDC8BDFC
:10070000F7CF80918000806880938000D09389002B
:10071000C0938800EDCF809180008062809380003C
:10072000D0938B00C0938A00E3CF809180008860D3
:1007300080938000D0938D00C0938C00D9CF80919E
:10074000B00080688093B000C093B300D1CF809197
:10075000B00080628093B000C093B400C9CF809194
:100760009000806880939000D0939900C093980087
:10077000BFCF80919000806280939000D0939B00C7
:10078000C0939A00B5CF80919000886080939000CC
:10079000D0939D00C0939C00ABCF8091A000806857
:1007A0008093A0008091A0008F7B8093A000D093C5
:1007B000A900C093A8009CCF8091A0008062809384
:1007C000A000D093AB00C093AA0092CF8091A0006C
:1007D00088608093A000D093AD00C093AC0088CF18
:1007E00080912001806880932001D0932901C093DB
:1007F00028017ECF80912001806280932001D093D8
:100800002B01C0932A0174CF8091200188608093CE
:100810002001D0932D01C0932C016ACFC038D1059F
:100820000CF03FCF35CF3FB7F89480913B029091C9
:100830003C02A0913D02B0913E0226B5A89B05C0A6
:100840002F3F19F00196A11DB11D3FBFBA2FA92F4F
:10085000982F8827BC01CD01620F711D811D911D4C
:1008600042E0660F771F881F991F4A95D1F70895B8
:10087000AF92BF92CF92DF92EF92FF920F931F93AE
:10088000CF93DF936B017A01EC01CE5CDD4F2881C1
:100890003CE0389F8001399F100D1124A09009047D
:1008A000B12C27FF1FC0FB011182108288818F5F4E
:1008B000888388819801280F311D87FD3A95F601BC
:1008C0002A153B051CF488818C30BCF18081918114
:1008D000049680349C4908F471C0F60180819181AE
:1008E00004966EC088819801280F311D87FD3A95C6
:1008F0002A153B05DCF68881A801480F511D87FDAC
:100900005A95FA01EE0FFF1FE40FF51FE758FC4F51
:10091000808186FFCBCF8881F801E80FF11D87FD2C
:10092000FA95CF01EE0FFF1FE80FF91FE758FC4FB4
:10093000808160E08F73E7DDB9CF8081918128816C
:10094000A801420F511D27FD5A959A01FA01EE0F99
:10095000FF1FE20FF31FE758FC4F21813281820F06
:10096000931FF7019183808388819801280F311D9F
:1009700087FD3A95F901EE0FFF1FE20FF31FE758CD
:10098000FC4F808186FF21C08881080F111D87FDE3
:100990001A95F801EE0FFF1FE00FF11FE758FC4F0B
:1009A000808161E08F73DF91CF911F910F91FF9054
:1009B000EF90DF90CF90BF90AF90A5CD80E49CE901
:1009C000F701918380838FEF8883DF91CF911F910F
:1009D0000F91FF90EF90DF90CF90BF90AF90089570
:1009E0000895FC01148270E060E0868148CECF93C8
:1009F000DF93EC011C8260E08A8185DD60E08B8101
:100A0000DF91CF9180CDDC01ED91FC910280F381EB
:100A1000E02D19941F93CF93DF93EC01162F6C8375
:100A20008A8167FF14C061E06EDD60E08B816BDD61
:100A30002D811203C001112464E670E010D5719578
:100A4000619571098E81DF91CF911F9118CE60E081
:100A50005ADD61E08B8157DD2D811203C001112425
:100A600064E670E0FCD4EECFCF93DF93EC018A8193
:100A70009B81DC01ED91FC910190F081E02D1995B5
:100A80008C819D81DC01ED91FC910190F081E02D44
:100A9000DF91CF911994CF93DF93EC0161E08A81CC
:100AA000BDDD61E08B81BADDE881F9810680F781E7
:100AB000E02DCE01DF91CF9119949CC51F920F922A
:100AC0000FB60F9211240BB60F922F933F934F93B3
:100AD0005F936F937F938F939F93AF93BF93EF93A6
:100AE000FF938FE392E057DCFF91EF91BF91AF91BD
:100AF0009F918F917F916F915F914F913F912F9136
:100B00000F900BBE0F900FBE0F901F9018951F9265
:100B10000F920FB60F9211240BB60F922F938F9353
:100B20009F93EF93FF93E0914F02F09150028081E9
:100B3000E0915502F091560282FD1DC09081809196
:100B400058028F5F8F7320915902821741F0E09114
:100B50005802F0E0E15CFD4F958F80935802FF91C1
:100B6000EF919F918F912F910F900BBE0F900FBE21
:100B70000F901F9018958081F2CF1F920F920FB6A1
:100B80000F9211240BB60F922F933F934F935F93C5
:100B90006F937F938F939F93AF93BF93EF93FF9345
:100BA0008CED92E0F8DBFF91EF91BF91AF919F91B7
:100BB0008F917F916F915F914F913F912F910F9006
:100BC0000BBE0F900FBE0F901F9018951F920F92A3
:100BD0000FB60F9211240BB60F922F938F939F9302
:100BE000EF93FF93E091EC02F091ED028081E091B0
:100BF000F202F091F30282FD1DC090818091F50216
:100C00008F5F8F732091F602821741F0E091F50219
:100C1000F0E0E452FD4F958F8093F502FF91EF9144
:100C20009F918F912F910F900BBE0F900FBE0F9041
:100C30001F9018958081F2CF1F920F920FB60F92DE
:100C400011242F933F938F939F93AF93BF938091E2
:100C5000370290913802A0913902B0913A02309156
:100C6000360223E0230F2D3758F50196A11DB11D43
:100C7000209336028093370290933802A093390272
:100C8000B0933A0280913B0290913C02A0913D02C8
:100C9000B0913E020196A11DB11D80933B0290933D
:100CA0003C02A0933D02B0933E02BF91AF919F9151
:100CB0008F913F912F910F900FBE0F901F9018951D
:100CC00026E8230F0296A11DB11DD2CF1F920F92CD
:100CD0000FB60F9211240BB60F922F933F934F93A1
:100CE0005F936F937F938F939F93AF93BF93EF9394
:100CF000FF9348E251E064E271E090E080E0B8DD0B
:100D0000FF91EF91BF91AF919F918F917F916F91E3
:100D10005F914F913F912F910F900BBE0F900FBE9F
:100D20000F901F9018951F920F920FB60F921124DB
:100D30000BB60F922F933F934F935F936F937F93D5
:100D40008F939F93AF93BF93EF93FF9348EA50E045
:100D500064EA70E083E090E08BDDFF91EF91BF915A
:100D6000AF919F918F917F916F915F914F913F9143
:100D70002F910F900BBE0F900FBE0F901F901895E4
:100D80001F920F920FB60F9211240BB60F922F9352
:100D90003F934F935F936F937F938F939F93AF9303
:100DA000BF93EF93FF9348E950E064E970E082E07D
:100DB00090E05EDDFF91EF91BF91AF919F918F9198
:100DC0007F916F915F914F913F912F910F900BBE4B
:100DD0000F900FBE0F901F9018951F920F920FB695
:100DE0000F9211240BB60F922F933F934F935F9363
:100DF0006F937F938F939F93AF93BF93EF93FF93E3
:100E000048E850E064E870E081E090E031DDFF9177
:100E1000EF91BF91AF919F918F917F916F915F9172
:100E20004F913F912F910F900BBE0F900FBE0F90DF
:100E30001F901895CF93DF93EC01198218821B82C3
:100E40001A821D821C8261E070E090E080E05BD439
:100E5000009799F0998388831B821A822C813D81A7
:100E6000232B11F4FC0110821D821C8260E372E0CE
:100E700088819981DF91CF912BC5888199810097D5
:100E800009F0B8D3198218821D821C821B821A8233
:100E9000DF91CF9108951F93CF93DF931092420279
:100EA0001092410248EE53E060E070E0409343024C
:100EB00050934402609345027093460280E192E0B1
:100EC0009093400280933F022DEC30E030934C022F
:100ED00020934B022CEC30E030934E0220934D02D5
:100EE00028EC30E03093500220934F0229EC30E0A0
:100EF00030935202209351022AEC30E03093540296
:100F0000209353022EEC30E030935602209355028A
:100F1000109258021092590210925A0210925B02DB
:100F20001092DF021092DE024093E0025093E10241
:100F30006093E2027093E3029093DD028093DC02FF
:100F400085EC90E09093E9028093E80284EC90E0D5
:100F50009093EB028093EA0280EC90E09093ED0294
:100F60008093EC0281EC90E09093EF028093EE028C
:100F700082EC90E09093F1028093F00286EC90E096
:100F80009093F3028093F2021092F5021092F6020F
:100F90001092F7021092F80280910904803308F051
:100FA0004CC091E0980F909309048093220490E044
:100FB000FC01EE0FFF1FE80FF91FE758FC4F88EB0D
:100FC0009BE0928381838CE194E034DF86E194E0BE
:100FD00031DF80E194E02EDF8AE092E090930B0411
:100FE00080930A0487E090E069D2FC0114821FEF2D
:100FF000158386E2828385E28383C2E2D2E0D183D5
:10100000C08386E08683F0930D04E0930C0487E0B0
:1010100090E054D2FC011482158384E2828389E239
:101020008383D183C08385E08683F0930F04E093AC
:101030000E04DF91CF911F9108958FEF80932204CA
:10104000C2CF789484B5826084BD84B5816084BD4C
:1010500085B5826085BD85B5816085BD80916E0056
:10106000816080936E001092810080918100826087
:1010700080938100809181008160809381008091C4
:1010800080008160809380008091B10084608093B3
:10109000B1008091B00081608093B0008091910098
:1010A0008260809391008091910081608093910093
:1010B000809190008160809390008091A100826077
:1010C0008093A1008091A10081608093A100809114
:1010D000A00081608093A0008091210182608093B4
:1010E0002101809121018160809321018091200163
:1010F00081608093200180917A00846080937A00DF
:1011000080917A00826080937A0080917A00816079
:1011100080937A0080917A00806880937A001092A0
:10112000C1008AE094E0A0DC80912204803308F0C2
:1011300050C061E088E072DA80912204282F30E00C
:10114000F901EE0FFF1FE20FF31FE758FC4F9081EC
:10115000907C9860908310922304109224042CE0D9
:10116000622F71D1829FB001112430E020E0AB01E9
:10117000420F531FFA01EE0FFF1FE40FF51FE75850
:10118000FC4F908196FD17C02F5F3F4F2C303105EB
:1011900071F7813009F0A5C01092800082E0809341
:1011A00081001092850010928400B19A80916F00A6
:1011B000826080936F00E09122048E2F90E0FC010A
:1011C000EE0FFF1FE80FF91FE758FC4F8081806486
:1011D0008083F09022048091240408E512E0081B2B
:1011E000110987FD1395000F111F000F111F80912A
:1011F0002304C8E8D0E0C81BD10987FDD395CC0FE4
:10120000DD1FCC0FDD1F4E010D2E000CAA08BB0800
:101210009801012E000C440B550B281939094A0975
:101220005B09A6E4B0E0D4D024EB30E040E050E02D
:10123000B3D0820E931EA41EB51E2FE22F15C8F048
:101240008C169D062CF0E801801691060CF4E40142
:101250002297CC0FDD1F2FB7F8948F2D90E0FC0163
:10126000EE0FFF1FE80FF91FE758FC4FD283C18331
:101270002FBF8CED92E00E9428018FE392E00E9444
:10128000280160E08FE1CAD961E08EE1C7D960E052
:1012900080E2C4D961E083E2C1D9C5DA6B017C0187
:1012A00084E6882E912CA12CB12CBDDA6C197D0915
:1012B0008E099F09683E734081059105B0F381E076
:1012C000881A9108A108B10828EEC20E23E0D21EA8
:1012D000E11CF11C81149104A104B10431F7E8D898
:1012E000DCCF823061F410929000809391001092D4
:1012F00095001092940088BB809371005CCF83307E
:1013000069F41092A00082E08093A1001092A500E1
:101310001092A40089BB809372004DCF81114BCFF6
:101320001092200182E080932101109225011092F9
:1013300024018ABB809373003ECF8AE092E09093B1
:101340000B0480930A0480910C0490910D04009783
:1013500039F0DC01ED91FC910484F585E02D1995BF
:1013600080910E0490910F04009739F0DC01ED910B
:10137000FC910484F585E02D1995809110049091DD
:10138000110438D1809116049091170433D18091C3
:101390001C0490911D042EC1052E97FB16F4009499
:1013A0000FD057FD05D01ED007FC02D046F408C070
:1013B00050954095309521953F4F4F4F5F4F089581
:1013C00090958095709561957F4F8F4F9F4F0895B1
:1013D0002BD0A59F900DB49F900DA49F800D911DC3
:1013E00011240895A1E21A2EAA1BBB1BFD010DC0FA
:1013F000AA1FBB1FEE1FFF1FA217B307E407F507C5
:1014000020F0A21BB30BE40BF50B661F771F881FA0
:10141000991F1A9469F760957095809590959B0136
:10142000AC01BD01CF010895A29FB001B39FC001DF
:10143000A39F700D811D1124911DB29F700D811D00
:101440001124911D0895991B79E004C0991F9617E6
:1014500008F0961B881F7A95C9F78095089597FB29
:10146000072E16F4009406D077FD08D013D007FCA1
:1014700005D03EF4909581959F4F089570956195A4
:101480007F4F0895EE0FFF1F881F8BBF0790F691C7
:10149000E02D1994AA1BBB1B51E107C0AA1FBB1F5B
:1014A000A617B70710F0A61BB70B881F991F5A95F0
:1014B000A9F780959095BC01CD0108950F931F93D6
:1014C000CF93DF938230910510F482E090E0E091B9
:1014D0002704F091280430E020E0B0E0A0E030974D
:1014E00099F42115310509F44AC0281B390B243021
:1014F0003105D8F58A819B816115710589F1FB0160
:1015000093838283FE0111C0408151810281138146
:1015100048175907E0F04817590799F4109761F0F8
:1015200012960C93129713961C933296CF01DF916B
:10153000CF911F910F9108950093270410932804D1
:10154000F4CF2115310551F04217530738F0A901A6
:10155000DB019A01BD01DF01F801C1CFEF01F9CF35
:101560009093280480932704CDCFFE01E20FF31F50
:10157000819391932250310939832883D7CF2091C9
:10158000250430912604232B41F42091020230914E
:101590000302309326042093250420910002309109
:1015A00001022115310541F42DB73EB740910402E7
:1015B00050910502241B350BE0912504F09126047F
:1015C000E217F307A0F42E1B3F0B2817390778F01A
:1015D000AC014E5F5F4F2417350748F04E0F5F1F79
:1015E0005093260440932504819391939FCFF0E07C
:1015F000E0E09CCFCF93DF930097E9F0FC013297B6
:1016000013821282A0912704B0912804ED0130E0EA
:1016100020E01097A1F420813181820F931F209147
:101620002504309126042817390709F061C0F0938A
:101630002604E0932504DF91CF910895EA01CE17A7
:10164000DF07E8F54A815B819E0141155105B1F73D
:10165000E901FB83EA8349915991C40FD51FEC1727
:10166000FD0761F4808191810296840F951FE90145
:1016700099838883828193819B838A83F0E0E0E071
:1016800012968D919C9113970097B9F52D913C91ED
:101690001197CD010296820F931F2091250430915E
:1016A00026042817390739F6309751F51092280487
:1016B00010922704B0932604A0932504BCCFD383B3
:1016C000C28340815181840F951FC817D90761F4E7
:1016D0004E5F5F4F88819981480F591F5183408326
:1016E0008A819B81938382832115310509F0B0CFD4
:1016F000F0932804E09327049ECFFD01DC01C0CFC6
:1017000013821282D7CF4F925F926F927F928F9205
:101710009F92AF92BF92CF92DF92EF92FF920F9380
:101720001F93CF93DF938C01009791F4CB01DF914E
:10173000CF911F910F91FF90EF90DF90CF90BF90CE
:10174000AF909F908F907F906F905F904F90B6CEAC
:10175000FC01E60FF71F9C0122503109E217F30745
:1017600008F4AAC0D901CD91DC911197C617D7070B
:1017700018F1C530D10570F0CE0104978617970790
:1017800048F0C61BD70B2297C193D1936D937C93DE
:10179000CF0130DFC801DF91CF911F910F91FF90F2
:1017A000EF90DF90CF90BF90AF909F908F907F9001
:1017B0006F905F904F9008955B01AC1ABD0A4C0189
:1017C0008C0E9D1EA0912704B0912804512C412C11
:1017D000F12CE12C109731F580912504909126048D
:1017E0008815990509F05CC04616570608F058C0E0
:1017F0008091000290910102009741F48DB79EB74D
:101800004091040250910502841B950BE817F907DB
:1018100008F052C0F0932604E0932504F901718387
:101820006083B8CF8D919C91119712966C9012970E
:1018300013967C901397A815B90559F56C0142E0F1
:10184000C40ED11CCA14DB0420F1AC014A195B0997
:10185000DA011296159780F0628273825183408379
:10186000D9016D937C93E114F10471F0D7011396C3
:10187000FC93EE9312978ECF22968C0F9D1FF90149
:1018800091838083F301EFCFF0932804E093270442
:1018900081CF4816590608F42C017D01D3019ACF57
:1018A000CB010CDE7C01009739F0AE01B80107D006
:1018B000C801A0DE87016ECF10E000E06BCFFB0116
:1018C000DC0102C001900D9241505040D8F70895BC
:1018D000FB01DC0101900D920020E1F7089510E07A
:1018E000C6EFD0E000E005C0802FFE01CBDD2196E1
:1018F000011DC73FD10780E00807B1F7F894FFCF7B
:1019000000002904800000000000340500000000F1
:10191000ED014F017C013902AD018B019F010000F7
:1019200000004B050A050305F704F104F0045D050A
:021930000000B5
:00000001FF
